{
	"data": {
		"bytecode": {
			"linkReferences": {},
			"object": "608060405262017fe06000806101000a8154816effffffffffffffffffffffffffffff02191690836effffffffffffffffffffffffffffff160217905550614f586000600f6101000a8154816effffffffffffffffffffffffffffff02191690836effffffffffffffffffffffffffffff16021790555034801561008257600080fd5b506102ce806100926000396000f3fe608060405234801561001057600080fd5b50600436106100415760003560e01c80633bc5de30146100465780634717f97c14610065578063ca77ab6514610084575b600080fd5b61004e6100a3565b60405161005c9291906101c0565b60405180910390f35b61006d6100be565b60405161007b9291906101c0565b60405180910390f35b61008c610103565b60405161009a9291906101c0565b60405180910390f35b600080600060e7905060006072905080829350935050509091565b60008060008054906101000a90046effffffffffffffffffffffffffffff166000600f9054906101000a90046effffffffffffffffffffffffffffff16915091509091565b60008060008054906101000a90046effffffffffffffffffffffffffffff166000600f9054906101000a90046effffffffffffffffffffffffffffff1661014a9190610218565b915060008054906101000a90046effffffffffffffffffffffffffffff166000600f9054906101000a90046effffffffffffffffffffffffffffff166101909190610255565b90509091565b60006effffffffffffffffffffffffffffff82169050919050565b6101ba81610196565b82525050565b60006040820190506101d560008301856101b1565b6101e260208301846101b1565b9392505050565b7f4e487b7100000000000000000000000000000000000000000000000000000000600052601160045260246000fd5b600061022382610196565b915061022e83610196565b925082820261023c81610196565b915080821461024e5761024d6101e9565b5b5092915050565b600061026082610196565b915061026b83610196565b925082820190506effffffffffffffffffffffffffffff811115610292576102916101e9565b5b9291505056fea264697066735822122060cf41810ed8e33a6dbf0482a881c858487157068f69336b0558219874867a0364736f6c63430008120033",
			"opcodes": "PUSH1 0x80 PUSH1 0x40 MSTORE PUSH3 0x17FE0 PUSH1 0x0 DUP1 PUSH2 0x100 EXP DUP2 SLOAD DUP2 PUSH15 0xFFFFFFFFFFFFFFFFFFFFFFFFFFFFFF MUL NOT AND SWAP1 DUP4 PUSH15 0xFFFFFFFFFFFFFFFFFFFFFFFFFFFFFF AND MUL OR SWAP1 SSTORE POP PUSH2 0x4F58 PUSH1 0x0 PUSH1 0xF PUSH2 0x100 EXP DUP2 SLOAD DUP2 PUSH15 0xFFFFFFFFFFFFFFFFFFFFFFFFFFFFFF MUL NOT AND SWAP1 DUP4 PUSH15 0xFFFFFFFFFFFFFFFFFFFFFFFFFFFFFF AND MUL OR SWAP1 SSTORE POP CALLVALUE DUP1 ISZERO PUSH2 0x82 JUMPI PUSH1 0x0 DUP1 REVERT JUMPDEST POP PUSH2 0x2CE DUP1 PUSH2 0x92 PUSH1 0x0 CODECOPY PUSH1 0x0 RETURN INVALID PUSH1 0x80 PUSH1 0x40 MSTORE CALLVALUE DUP1 ISZERO PUSH2 0x10 JUMPI PUSH1 0x0 DUP1 REVERT JUMPDEST POP PUSH1 0x4 CALLDATASIZE LT PUSH2 0x41 JUMPI PUSH1 0x0 CALLDATALOAD PUSH1 0xE0 SHR DUP1 PUSH4 0x3BC5DE30 EQ PUSH2 0x46 JUMPI DUP1 PUSH4 0x4717F97C EQ PUSH2 0x65 JUMPI DUP1 PUSH4 0xCA77AB65 EQ PUSH2 0x84 JUMPI JUMPDEST PUSH1 0x0 DUP1 REVERT JUMPDEST PUSH2 0x4E PUSH2 0xA3 JUMP JUMPDEST PUSH1 0x40 MLOAD PUSH2 0x5C SWAP3 SWAP2 SWAP1 PUSH2 0x1C0 JUMP JUMPDEST PUSH1 0x40 MLOAD DUP1 SWAP2 SUB SWAP1 RETURN JUMPDEST PUSH2 0x6D PUSH2 0xBE JUMP JUMPDEST PUSH1 0x40 MLOAD PUSH2 0x7B SWAP3 SWAP2 SWAP1 PUSH2 0x1C0 JUMP JUMPDEST PUSH1 0x40 MLOAD DUP1 SWAP2 SUB SWAP1 RETURN JUMPDEST PUSH2 0x8C PUSH2 0x103 JUMP JUMPDEST PUSH1 0x40 MLOAD PUSH2 0x9A SWAP3 SWAP2 SWAP1 PUSH2 0x1C0 JUMP JUMPDEST PUSH1 0x40 MLOAD DUP1 SWAP2 SUB SWAP1 RETURN JUMPDEST PUSH1 0x0 DUP1 PUSH1 0x0 PUSH1 0xE7 SWAP1 POP PUSH1 0x0 PUSH1 0x72 SWAP1 POP DUP1 DUP3 SWAP4 POP SWAP4 POP POP POP SWAP1 SWAP2 JUMP JUMPDEST PUSH1 0x0 DUP1 PUSH1 0x0 DUP1 SLOAD SWAP1 PUSH2 0x100 EXP SWAP1 DIV PUSH15 0xFFFFFFFFFFFFFFFFFFFFFFFFFFFFFF AND PUSH1 0x0 PUSH1 0xF SWAP1 SLOAD SWAP1 PUSH2 0x100 EXP SWAP1 DIV PUSH15 0xFFFFFFFFFFFFFFFFFFFFFFFFFFFFFF AND SWAP2 POP SWAP2 POP SWAP1 SWAP2 JUMP JUMPDEST PUSH1 0x0 DUP1 PUSH1 0x0 DUP1 SLOAD SWAP1 PUSH2 0x100 EXP SWAP1 DIV PUSH15 0xFFFFFFFFFFFFFFFFFFFFFFFFFFFFFF AND PUSH1 0x0 PUSH1 0xF SWAP1 SLOAD SWAP1 PUSH2 0x100 EXP SWAP1 DIV PUSH15 0xFFFFFFFFFFFFFFFFFFFFFFFFFFFFFF AND PUSH2 0x14A SWAP2 SWAP1 PUSH2 0x218 JUMP JUMPDEST SWAP2 POP PUSH1 0x0 DUP1 SLOAD SWAP1 PUSH2 0x100 EXP SWAP1 DIV PUSH15 0xFFFFFFFFFFFFFFFFFFFFFFFFFFFFFF AND PUSH1 0x0 PUSH1 0xF SWAP1 SLOAD SWAP1 PUSH2 0x100 EXP SWAP1 DIV PUSH15 0xFFFFFFFFFFFFFFFFFFFFFFFFFFFFFF AND PUSH2 0x190 SWAP2 SWAP1 PUSH2 0x255 JUMP JUMPDEST SWAP1 POP SWAP1 SWAP2 JUMP JUMPDEST PUSH1 0x0 PUSH15 0xFFFFFFFFFFFFFFFFFFFFFFFFFFFFFF DUP3 AND SWAP1 POP SWAP2 SWAP1 POP JUMP JUMPDEST PUSH2 0x1BA DUP2 PUSH2 0x196 JUMP JUMPDEST DUP3 MSTORE POP POP JUMP JUMPDEST PUSH1 0x0 PUSH1 0x40 DUP3 ADD SWAP1 POP PUSH2 0x1D5 PUSH1 0x0 DUP4 ADD DUP6 PUSH2 0x1B1 JUMP JUMPDEST PUSH2 0x1E2 PUSH1 0x20 DUP4 ADD DUP5 PUSH2 0x1B1 JUMP JUMPDEST SWAP4 SWAP3 POP POP POP JUMP JUMPDEST PUSH32 0x4E487B7100000000000000000000000000000000000000000000000000000000 PUSH1 0x0 MSTORE PUSH1 0x11 PUSH1 0x4 MSTORE PUSH1 0x24 PUSH1 0x0 REVERT JUMPDEST PUSH1 0x0 PUSH2 0x223 DUP3 PUSH2 0x196 JUMP JUMPDEST SWAP2 POP PUSH2 0x22E DUP4 PUSH2 0x196 JUMP JUMPDEST SWAP3 POP DUP3 DUP3 MUL PUSH2 0x23C DUP2 PUSH2 0x196 JUMP JUMPDEST SWAP2 POP DUP1 DUP3 EQ PUSH2 0x24E JUMPI PUSH2 0x24D PUSH2 0x1E9 JUMP JUMPDEST JUMPDEST POP SWAP3 SWAP2 POP POP JUMP JUMPDEST PUSH1 0x0 PUSH2 0x260 DUP3 PUSH2 0x196 JUMP JUMPDEST SWAP2 POP PUSH2 0x26B DUP4 PUSH2 0x196 JUMP JUMPDEST SWAP3 POP DUP3 DUP3 ADD SWAP1 POP PUSH15 0xFFFFFFFFFFFFFFFFFFFFFFFFFFFFFF DUP2 GT ISZERO PUSH2 0x292 JUMPI PUSH2 0x291 PUSH2 0x1E9 JUMP JUMPDEST JUMPDEST SWAP3 SWAP2 POP POP JUMP INVALID LOG2 PUSH5 0x6970667358 0x22 SLT KECCAK256 PUSH1 0xCF COINBASE DUP2 0xE 0xD8 0xE3 GASPRICE PUSH14 0xBF0482A881C858487157068F6933 PUSH12 0x558219874867A0364736F6C PUSH4 0x43000812 STOP CALLER "
		},
		"gasEstimates": {
			"creation": {
				"codeDepositCost": "143600",
				"executionCost": "48774",
				"totalCost": "192374"
			},
			"external": {
				"calculate()": "infinite",
				"getData()": "infinite",
				"getResults()": "infinite"
			}
		},
		"methodIdentifiers": {
			"calculate()": "ca77ab65",
			"getData()": "3bc5de30",
			"getResults()": "4717f97c"
		}
	},
	"abi": [
		{
			"inputs": [],
			"name": "calculate",
			"outputs": [
				{
					"internalType": "uint120",
					"name": "product",
					"type": "uint120"
				},
				{
					"internalType": "uint120",
					"name": "sum",
					"type": "uint120"
				}
			],
			"stateMutability": "view",
			"type": "function"
		},
		{
			"inputs": [],
			"name": "getData",
			"outputs": [
				{
					"internalType": "uint120",
					"name": "",
					"type": "uint120"
				},
				{
					"internalType": "uint120",
					"name": "",
					"type": "uint120"
				}
			],
			"stateMutability": "pure",
			"type": "function"
		},
		{
			"inputs": [],
			"name": "getResults",
			"outputs": [
				{
					"internalType": "uint120",
					"name": "",
					"type": "uint120"
				},
				{
					"internalType": "uint120",
					"name": "",
					"type": "uint120"
				}
			],
			"stateMutability": "view",
			"type": "function"
		}
	]
}