{
	"data": {
		"bytecode": {
			"linkReferences": {},
			"object": "608060405260026000806101000a8154816effffffffffffffffffffffffffffff02191690836effffffffffffffffffffffffffffff160217905550650102b36211c76000600f6101000a8154816effffffffffffffffffffffffffffff02191690836effffffffffffffffffffffffffffff16021790555034801561008457600080fd5b50610289806100946000396000f3fe608060405234801561001057600080fd5b50600436106100365760003560e01c80634717f97c1461003b578063ca77ab651461005a575b600080fd5b610043610079565b60405161005192919061017b565b60405180910390f35b6100626100be565b60405161007092919061017b565b60405180910390f35b60008060008054906101000a90046effffffffffffffffffffffffffffff166000600f9054906101000a90046effffffffffffffffffffffffffffff16915091509091565b60008060008054906101000a90046effffffffffffffffffffffffffffff166000600f9054906101000a90046effffffffffffffffffffffffffffff1661010591906101d3565b915060008054906101000a90046effffffffffffffffffffffffffffff166000600f9054906101000a90046effffffffffffffffffffffffffffff1661014b9190610210565b90509091565b60006effffffffffffffffffffffffffffff82169050919050565b61017581610151565b82525050565b6000604082019050610190600083018561016c565b61019d602083018461016c565b9392505050565b7f4e487b7100000000000000000000000000000000000000000000000000000000600052601160045260246000fd5b60006101de82610151565b91506101e983610151565b92508282026101f781610151565b9150808214610209576102086101a4565b5b5092915050565b600061021b82610151565b915061022683610151565b925082820190506effffffffffffffffffffffffffffff81111561024d5761024c6101a4565b5b9291505056fea2646970667358221220bca21e0476a371d8a3b63f51842a59bf050d396b86e129c148feecad1a042bc264736f6c63430008120033",
			"opcodes": "PUSH1 0x80 PUSH1 0x40 MSTORE PUSH1 0x2 PUSH1 0x0 DUP1 PUSH2 0x100 EXP DUP2 SLOAD DUP2 PUSH15 0xFFFFFFFFFFFFFFFFFFFFFFFFFFFFFF MUL NOT AND SWAP1 DUP4 PUSH15 0xFFFFFFFFFFFFFFFFFFFFFFFFFFFFFF AND MUL OR SWAP1 SSTORE POP PUSH6 0x102B36211C7 PUSH1 0x0 PUSH1 0xF PUSH2 0x100 EXP DUP2 SLOAD DUP2 PUSH15 0xFFFFFFFFFFFFFFFFFFFFFFFFFFFFFF MUL NOT AND SWAP1 DUP4 PUSH15 0xFFFFFFFFFFFFFFFFFFFFFFFFFFFFFF AND MUL OR SWAP1 SSTORE POP CALLVALUE DUP1 ISZERO PUSH2 0x84 JUMPI PUSH1 0x0 DUP1 REVERT JUMPDEST POP PUSH2 0x289 DUP1 PUSH2 0x94 PUSH1 0x0 CODECOPY PUSH1 0x0 RETURN INVALID PUSH1 0x80 PUSH1 0x40 MSTORE CALLVALUE DUP1 ISZERO PUSH2 0x10 JUMPI PUSH1 0x0 DUP1 REVERT JUMPDEST POP PUSH1 0x4 CALLDATASIZE LT PUSH2 0x36 JUMPI PUSH1 0x0 CALLDATALOAD PUSH1 0xE0 SHR DUP1 PUSH4 0x4717F97C EQ PUSH2 0x3B JUMPI DUP1 PUSH4 0xCA77AB65 EQ PUSH2 0x5A JUMPI JUMPDEST PUSH1 0x0 DUP1 REVERT JUMPDEST PUSH2 0x43 PUSH2 0x79 JUMP JUMPDEST PUSH1 0x40 MLOAD PUSH2 0x51 SWAP3 SWAP2 SWAP1 PUSH2 0x17B JUMP JUMPDEST PUSH1 0x40 MLOAD DUP1 SWAP2 SUB SWAP1 RETURN JUMPDEST PUSH2 0x62 PUSH2 0xBE JUMP JUMPDEST PUSH1 0x40 MLOAD PUSH2 0x70 SWAP3 SWAP2 SWAP1 PUSH2 0x17B JUMP JUMPDEST PUSH1 0x40 MLOAD DUP1 SWAP2 SUB SWAP1 RETURN JUMPDEST PUSH1 0x0 DUP1 PUSH1 0x0 DUP1 SLOAD SWAP1 PUSH2 0x100 EXP SWAP1 DIV PUSH15 0xFFFFFFFFFFFFFFFFFFFFFFFFFFFFFF AND PUSH1 0x0 PUSH1 0xF SWAP1 SLOAD SWAP1 PUSH2 0x100 EXP SWAP1 DIV PUSH15 0xFFFFFFFFFFFFFFFFFFFFFFFFFFFFFF AND SWAP2 POP SWAP2 POP SWAP1 SWAP2 JUMP JUMPDEST PUSH1 0x0 DUP1 PUSH1 0x0 DUP1 SLOAD SWAP1 PUSH2 0x100 EXP SWAP1 DIV PUSH15 0xFFFFFFFFFFFFFFFFFFFFFFFFFFFFFF AND PUSH1 0x0 PUSH1 0xF SWAP1 SLOAD SWAP1 PUSH2 0x100 EXP SWAP1 DIV PUSH15 0xFFFFFFFFFFFFFFFFFFFFFFFFFFFFFF AND PUSH2 0x105 SWAP2 SWAP1 PUSH2 0x1D3 JUMP JUMPDEST SWAP2 POP PUSH1 0x0 DUP1 SLOAD SWAP1 PUSH2 0x100 EXP SWAP1 DIV PUSH15 0xFFFFFFFFFFFFFFFFFFFFFFFFFFFFFF AND PUSH1 0x0 PUSH1 0xF SWAP1 SLOAD SWAP1 PUSH2 0x100 EXP SWAP1 DIV PUSH15 0xFFFFFFFFFFFFFFFFFFFFFFFFFFFFFF AND PUSH2 0x14B SWAP2 SWAP1 PUSH2 0x210 JUMP JUMPDEST SWAP1 POP SWAP1 SWAP2 JUMP JUMPDEST PUSH1 0x0 PUSH15 0xFFFFFFFFFFFFFFFFFFFFFFFFFFFFFF DUP3 AND SWAP1 POP SWAP2 SWAP1 POP JUMP JUMPDEST PUSH2 0x175 DUP2 PUSH2 0x151 JUMP JUMPDEST DUP3 MSTORE POP POP JUMP JUMPDEST PUSH1 0x0 PUSH1 0x40 DUP3 ADD SWAP1 POP PUSH2 0x190 PUSH1 0x0 DUP4 ADD DUP6 PUSH2 0x16C JUMP JUMPDEST PUSH2 0x19D PUSH1 0x20 DUP4 ADD DUP5 PUSH2 0x16C JUMP JUMPDEST SWAP4 SWAP3 POP POP POP JUMP JUMPDEST PUSH32 0x4E487B7100000000000000000000000000000000000000000000000000000000 PUSH1 0x0 MSTORE PUSH1 0x11 PUSH1 0x4 MSTORE PUSH1 0x24 PUSH1 0x0 REVERT JUMPDEST PUSH1 0x0 PUSH2 0x1DE DUP3 PUSH2 0x151 JUMP JUMPDEST SWAP2 POP PUSH2 0x1E9 DUP4 PUSH2 0x151 JUMP JUMPDEST SWAP3 POP DUP3 DUP3 MUL PUSH2 0x1F7 DUP2 PUSH2 0x151 JUMP JUMPDEST SWAP2 POP DUP1 DUP3 EQ PUSH2 0x209 JUMPI PUSH2 0x208 PUSH2 0x1A4 JUMP JUMPDEST JUMPDEST POP SWAP3 SWAP2 POP POP JUMP JUMPDEST PUSH1 0x0 PUSH2 0x21B DUP3 PUSH2 0x151 JUMP JUMPDEST SWAP2 POP PUSH2 0x226 DUP4 PUSH2 0x151 JUMP JUMPDEST SWAP3 POP DUP3 DUP3 ADD SWAP1 POP PUSH15 0xFFFFFFFFFFFFFFFFFFFFFFFFFFFFFF DUP2 GT ISZERO PUSH2 0x24D JUMPI PUSH2 0x24C PUSH2 0x1A4 JUMP JUMPDEST JUMPDEST SWAP3 SWAP2 POP POP JUMP INVALID LOG2 PUSH5 0x6970667358 0x22 SLT KECCAK256 0xBC LOG2 0x1E DIV PUSH23 0xA371D8A3B63F51842A59BF050D396B86E129C148FEECAD BYTE DIV 0x2B 0xC2 PUSH5 0x736F6C6343 STOP ADDMOD SLT STOP CALLER "
		},
		"gasEstimates": {
			"creation": {
				"codeDepositCost": "129800",
				"executionCost": "48761",
				"totalCost": "178561"
			},
			"external": {
				"calculate()": "infinite",
				"getResults()": "infinite"
			}
		},
		"methodIdentifiers": {
			"calculate()": "ca77ab65",
			"getResults()": "4717f97c"
		}
	},
	"abi": [
		{
			"inputs": [],
			"name": "calculate",
			"outputs": [
				{
					"internalType": "uint120",
					"name": "product",
					"type": "uint120"
				},
				{
					"internalType": "uint120",
					"name": "sum",
					"type": "uint120"
				}
			],
			"stateMutability": "view",
			"type": "function"
		},
		{
			"inputs": [],
			"name": "getResults",
			"outputs": [
				{
					"internalType": "uint120",
					"name": "",
					"type": "uint120"
				},
				{
					"internalType": "uint120",
					"name": "",
					"type": "uint120"
				}
			],
			"stateMutability": "view",
			"type": "function"
		}
	]
}